S014000041544D65676131365F4144432E7372656373
S11300000C942A000C943C000C943C000C943C008E
S11300100C943C000C943C000C943C000C943C006C
S11300200C943C000C943C000C943C000C943C005C
S11300300C943C000C943C000C9465000C943C0023
S11300400C943C000C943C000C943C000C943C003C
S11300500C943C0011241FBECFE5D4E0DEBFCDBF1D
S113006020E0A0E6B0E001C01D92A036B207E1F79F
S11300700E943E000C9477000C9400008EB58F7E95
S11300808EBD8EB588608EBD8FB583608FBD8FB5F4
S113009080688FBD8FB58F7B8FBD8EB584608EBD1C
S11300A081B3806281BB789486B1886086B917B8C1
S11300B086B1806A86B986B1846086B986B18C7F40
S11300C086B986B1806486B9FFCF1F920F920FB6AE
S11300D00F9211248F939F9384B195B19BBD8ABDD8
S11300E09F918F910F900FBE0F901F901895F894C9
S10500F0FFCF3C
S9030000FC
